:020000020000FC
:020000001FC01F
:0200080059C0DD
:100040000FED0DBF0FEF07BB08BB0EEF01BB01E0CB
:1000500002BB24E000E409BF0BE00EBD02E00BBDD3
:1000600001E70ABD332744275527662731E042E0E0
:1000700053E064E0789416D001D0FDCF0EF00895DF
:10008000E89433953A30D9F7332743954A30B9F796
:10009000442753955A3099F7552763956A3079F775
:1000A000662708958099089505D0809BFECF02D0E1
:1000B000689408957AE07723F1F708955FB603D046
:1000C0007A955FBE18952A9509F424E0F1E0E4E002
:1000D0009398949895989698213069F0223041F041
:1000E000233019F0E60F969A08C0E50F959A05C0DF
:1000F000E40F949A02C0E30F939A0027F01FC8956B
:1001000008BA08953F065B4F666D7D077F6F777C69
:06011000395E7971400028
:00000001FF
