:020000020000FC
:10000000BEC024EB01C023E12F9328E02A95F1F72D
:100010002F912A95C9F7089596988E9AF2DFF89451
:100020008E98969AF0DF889486990894789401E0E7
:1000300038F0E7DF02E088948699089408F400E03D
:100040000023089518E0069510F026D001C02ED0A8
:100050001A95C9F7089508F01FC028C018E005D008
:1000600007951A95E1F7089500C0F89496988E9A2E
:1000700028E02A95F1F78E98969A28E02A95F1F7CC
:1000800028E02A95F1F728E02A95F1F788948699D7
:1000900008947894B8DF0895F89496988E9AB3DF10
:1000A000969A8E9A8E98969A78940895F89496983F
:1000B0008E9A28E02A95F1F7969A8E9A8E98969ABB
:1000C0007894A1DF08950591003011F02CD0FBCF7A
:1000D00008950F93029501D00F910F700A3008F028
:1000E000095F20C0899A889A8A9A8B9A8C9A8D9AED
:1000F00030D003E01AD003E018D003E016D008E2B5
:1001000014D008E212D008E010D001E00ED000E1D7
:100110000CD006E00AD002E008D008E206D00CE0DD
:1001200004D00895005D909A01C0909802D001D04B
:1001300010C0929893989498959804FD929A05FD12
:10014000939A06FD949A07FD959A919A0295919833
:1001500008950F930AE519E11A95F1F70A95D9F771
:100160000F910895899A889A8A9A8B9A8C9A8D9A77
:1001700002E0DBDF08E2D9DF0CE0D7DF08950FED06
:100180000DBFB0DF29D0FECF47DF03E35BDFFF27E2
:10019000E0E602E0CADF62DF01939BDF5FDF0193ED
:1001A00098DF5CDF019395DF59DF019392DF56DF23
:1001B00001938FDF53DF01938CDF50DF019389DFE1
:1001C0004DDF019386DF00ECB0DF0DE2ACDFFF27EF
:1001D000E0E646D07EDF08952DD01EDF0CEC32DF46
:1001E0000EEB30DFFF27E0E602E09FDF37DF019311
:1001F00070DF34DF01936DDF31DF01936ADF2EDFC3
:10020000019367DF2BDF019364DF28DF019361DF58
:1002100025DF01935EDF22DF01935BDF00EC85DFEA
:100220001DDF019356DF0DE27EDFFF27E0E618D0E9
:1002300050DF0895F1DE29F40CEC04DF04E402DF62
:1002400001D00895969A8E9AF4E0E0E3DADE88947D
:100250008699089410F43197C9F78E98969A089564
:1002600028E40027108517951087178117951783A5
:100270001681179516831581179515831481179587
:10028000148313811795138312811795128311819B
:100290001795118310811795108310E8079508F4BE
:1002A00001271CE007FD01272A95E1F600230895A8
:00000001FF
