:020000020000FC
:1000000012C01895189518951895189537C0189519
:100010001895189518951895189518951895189578
:100020001895189518950FED0DBF0FEF07BB08BB7E
:100030000FEF02BB02E009BF01E003BF00000000B8
:1000400000000000000000000000002702BF0000C8
:10005000000000000000000004E602BF00000000F5
:10006000000000000000002703BF000000000000A7
:100070000000000001E003BF7894FFCFB09A18950C
:00000001FF
