:020000020000FC
:10000000C6C028CC8F5203000063287B6C8100009F
:10001000001824EB01C023E12F9328E02A95F1F783
:100020002F912A95C9F7089596988E9AF2DFF89441
:100030008E98969AF0DF889486990894789401E0D7
:1000400038F0E7DF02E088948699089408F400E02D
:100050000023089518E0069510F026D001C02ED098
:100060001A95C9F7089508F01FC028C018E005D0F8
:1000700007951A95E1F7089500C0F89496988E9A1E
:1000800028E02A95F1F78E98969A28E02A95F1F7BC
:1000900028E02A95F1F728E02A95F1F788948699C7
:1000A00008947894B8DF0895F89496988E9AB3DF00
:1000B000969A8E9A8E98969A78940895F89496982F
:1000C0008E9A28E02A95F1F7969A8E9A8E98969AAB
:1000D0007894A1DF08950591003011F02CD0FBCF6A
:1000E00008950F93029501D00F910F700A3008F018
:1000F000095F20C0899A889A8A9A8B9A8C9A8D9ADD
:1001000030D003E01AD003E018D003E016D008E2A4
:1001100014D008E212D008E010D001E00ED000E1C7
:100120000CD006E00AD002E008D008E206D00CE0CD
:1001300004D00895005D909A01C0909802D001D03B
:1001400010C0929893989498959804FD929A05FD02
:10015000939A06FD949A07FD959A919A0295919823
:1001600008950F930AE519E11A95F1F70A95D9F761
:100170000F910895899A889A8A9A8B9A8C9A8D9A67
:1001800002E0DBDF08E2D9DF0CE0D7DF08950FEDF6
:100190000DBFB0DF6DD0B9F502E0CFDFEF93FF9375
:1001A000F2E0E2E598DFFF91EF913EDF05E552DFF7
:1001B000F0E0E2E048E005914DDF4A95E1F70EEB13
:1001C00049DF54DFE02F52DFF02F7CD067D000EC06
:1001D000B4DFEF93FF93F2E0EAE57DDFFF91EF916B
:1001E00023DF05E537DFF0E0EAE048E0059132DFA4
:1001F0004A95E1F70EEB2EDF39DFE02F37DFF02FE6
:1002000061D04CD0C7CF402F02E097DFEF93FF9330
:10021000F2E0E2E660DFFF91EF91042F8BDFEF93D6
:10022000FF93F2E0EAE657DFFF91EF9100EC85DF04
:10023000EF93FF93F2E0E2E64EDFFF91EF91042FA0
:1002400079DFEF93FF93F2E0EAE645DFFF91EF916C
:10025000A1CF546D7031203D2000546D7032203D8F
:1002600020004572726F72200000202020202000A4
:10027000DBDE29F40CECEEDE04E4ECDE01D00895C4
:10028000969A8E9AF4E0E0E3C4DE88948699089406
:1002900010F43197C9F78E98969A0895E7FF03C036
:1002A0000DE249DF07C0E4FF03C001E344DF02C001
:1002B00000E241DF0F2F15DF0EE23DDF0E2F0F7042
:1002C00039DF0895F7FB1EF4E095F095319602D0E2
:1002D000E7F90895EE1FFF1FEE1FFF1FEE1FFF1F20
:1002E000EE1FFF1FE29502D00AD00895EF700E2F87
:1002F000EE0FEE0FE00FE695E695E69508950027E0
:10030000F43610F0F456E061FA3018F0FA50039524
:08031000FBCF0295F02B0895CC
:00000001FF
