:020000020000FC
:1000000032C124EB01C023E12F9328E02A95F1F7B8
:100010002F912A95C9F7089596988E9AF2DFF89451
:100020008E98969AF0DF889486990894789401E0E7
:1000300038F0E7DF02E088948699089408F400E03D
:100040000023089518E0069510F026D001C02ED0A8
:100050001A95C9F7089508F01FC028C018E005D008
:1000600007951A95E1F7089500C0F89496988E9A2E
:1000700028E02A95F1F78E98969A28E02A95F1F7CC
:1000800028E02A95F1F728E02A95F1F788948699D7
:1000900008947894B8DF0895F89496988E9AB3DF10
:1000A000969A8E9A8E98969A78940895F89496983F
:1000B0008E9A28E02A95F1F7969A8E9A8E98969ABB
:1000C0007894A1DF089517D002C00CECBBDF0EEBD3
:1000D000B9DFE9E0C3DF0993EA95E1F70895969A5D
:1000E0008E9A8FDF88948699089410F43197C9F717
:1000F0008E98969A089505E5A5DFCF93C8E00591FF
:10010000A1DFCA95E1F7CF91089528E4002718856B
:10011000179518871F8117951F831E8117951E83BA
:100120001D8117951D831C8117951C831B811795B5
:100130001B831A8117951A831981179519831881C2
:100140001795188310E8079508F401271CE007FDB0
:1001500001272A95E1F600230895F7FB1EF4E095A8
:10016000F095319602D0E7F90895EE1FFF1FEE1FBC
:10017000FF1FEE1FFF1FEE1FFF1FE29502D00AD0E8
:100180000895EF700E2FEE0FEE0FE00FE695E69557
:10019000E69508950027F43610F0F456E061FA3041
:1001A00018F0FA500395FBCF0295F02B08950591B6
:1001B000003011F02CD0FBCF08950F93029501D0A1
:1001C0000F910F700A3008F0095F20C0899A889A51
:1001D0008A9A8B9A8C9A8D9A30D003E01AD003E0D9
:1001E00018D003E016D008E214D008E212D008E0DC
:1001F00010D001E00ED000E10CD006E00AD002E001
:1002000008D008E206D00CE004D00895005D909A72
:1002100001C0909802D001D010C092989398949801
:10022000959804FD929A05FD939A06FD949A07FD10
:10023000959A919A0295919808950F930AE519E17C
:100240001A95F1F70A95D9F70F910895899A889A26
:100250008A9A8B9A8C9A8D9A02E0DBDF08E2D9DFCA
:100260000CE0D7DF08950FED0DBFE894D5DEA1F4C3
:100270000CECE8DE0EE4E6DE0FEFE4DE0FEFE2DE8C
:100280000FE7E0DEC9DE41F40CECDCDE08E4DADE88
:10029000F0E0E0E324DF01C0689498DF02E0B9DF1A
:1002A000E894BADEB9F40CECCDDE04E4CBDEF4E085
:1002B000E0E315DFD0E0C0E6AFDE61F4F3E0ECEFA1
:1002C00002DFD0E0C0E6E881F9811FDF03E011F42E
:1002D00044DF01C0689416F46AD008C0EF93FF931E
:1002E000F3E0E2EE64DFFF91EF914ED000EC91DF9E
:1002F000E89492DEB9F40CECA5DE04E4A3DEF4E0AD
:10030000E0E3EDDED0E0C0E687DE61F4F4E0ECE0AF
:10031000DADED0E0C0E6E881F981F7DE03E011F42F
:100320001CDF01C0689416F442D0B8CFEF93FF935E
:10033000F3E0ECEE3CDFFF91EF9126D0AFCFE894F5
:100340006BDEA9F40CEC7EDE04E47CDEF4E0E0E39A
:10035000C6DED0E0C0E660DE51F4B7DED0E0C0E635
:10036000E881F981D2DE03E011F4F7DE01C0689480
:1003700016F41DD093CFEF93FF93F3E0EAED17DF70
:10038000FF91EF9101D08ACFE7FF02C00DE23FDF7E
:10039000E4FF03C001E33BDF02C000E238DF0F2FC0
:1003A0000CDF0EE234DF0E2F0F7030DF08950F9355
:1003B000EF93FF93F3E0E2EDFADEFF91EF910F91FF
:1003C000FCDEEF93FF93F3E0E6EFF1DEFF91EF91B8
:1003D00008954572726F7220000054656D70203D63
:1003E000200054656D7031203D20000054656D7013
:1003F00032203D20000020202020200028CC8F52D9
:1004000003000063287B6C8100000018282AB7E5F0
:04041000000000B137
:00000001FF
