:020000020000FC
:1000000012C02FC026C018951895189518951895E8
:100010001895189518951DC0189518951895189548
:100020001895189518950FED0DBF002701BB0FEF20
:1000300002BB0FEF07BB08BB0FE005BF01EA00BD25
:1000400000EE0BBF789420FF02C0C198FCCFC19A8C
:10005000FACF0F930FB70F932E7F0F910FBF0F9112
:1000600018955FB621607894000000000000000041
:100070000000000000000000F894000000000000F4
:100080000000000000000000000078940000000064
:1000900000000000F89400000000000000000000D4
:1000A0000000000000000FEF0ABF7894000000007D
:1000B000000000008B9A9398939A000000000000C3
:0800C0000000F8945FBE0895F2
:00000001FF
