:020000020000FC
:0200000012C02C
:0200060034C004
:02000A0042C0F2
:100026000FED0DBF0FEF02BB0FEF08BB08E00AB9DB
:1000360006E003B900E002B903E309B908E809BF1D
:1000460000E40EBD00E00DBD00E00CBDD0E0C0E652
:10005600222744270FEF08BF78948699FECF02E443
:100066000EBD40FFFECF13D0EBCF00E00DBD00E08C
:100076000CBD30E40EB503270EBD04B5099305B5D6
:10008600099323952C3309F0189541600895D0E023
:10009600C0E611271395BB27A12F67D000E277D0C2
:1000A60000E275D000E273D000E371D00AE36FD0AE
:1000B60000E26DD034D000E26AD02A9539F100E230
:1000C60066D001E364D00AE362D000E260D027D0B4
:1000D60000E25DD000E25BD000E259D02497A991FE
:1000E600B9910991A00F0991B01F08E250D019D01B
:1000F60000E24DD005E74BD003E749D009E247D0EF
:100106000AE045D00DE043D02A9521F60AE03FD01B
:100116000DE03DD00AE03BD00DE039D00895A9911D
:10012600B99133270A2F00510B2F074208F404C058
:10013600A051B7423395F6CF28D033270A2F085E51
:100146000B2F034008F404C0A85EB3403395F6CFE6
:100156001CD033270A2F04560B2F004008F404C086
:10016600A456B0403395F6CF10D033270A2F0A5045
:100176000B2F004008F404C0AA50B0403395F6CFC8
:1001860004D00A2F005D03D00895032F005D5D9B08
:06019600FECF0CB9089534
:00000001FF
