:020000020000FC
:020000001FC01F
:100040000FED0DBF35D000E361D001E35FD002E3D7
:100050005DD003E05AD001E259D00EE257D00AE257
:1000600055D000E253D001E451D002E64FD00FE862
:100070004FD002E34BD003E349D004E347D005E37C
:1000800045D000EC45D008E441D009E43FD001E27E
:100090003DD000E23BD008EA39D000E737D008EB8A
:1000A00035D003EB33D005E631D00FEB2FD0FFCFA7
:1000B000BB9ABA9ABC9ABD9ABE9ABF9A3FD003E047
:1000C00027D003E025D003E023D008E221D008E2C6
:1000D0001FD008E01DD001E01BD000E119D006E0E0
:1000E00017D002E015D008E213D00CE011D008952B
:1000F000BB9ABA9ABC9ABD9ABE9ABF9A02E008D03F
:1001000008E206D00CE004D00895005DC29A01C058
:10011000C29804D0029502D011D00895C498C59811
:10012000C698C79804FDC49A05FDC59A06FDC69AEF
:1001300007FDC79AC39A0000C39808950F9302E37E
:0E01400019E11A95F1F70A95D9F70F91089574
:00000001FF
