:020000020000FC
:020000001FC01F
:100040000FED0DBF08E10AB906E003B900E002B9FF
:1000500003E309B9CDD046D0CBD00F9300E0102EEA
:1000600004E0202E00E0302E00E0402E0F9198D0CA
:100070000F9300E0102E04E0202E00E0302E00E070
:10008000402E0F91A0D0B4D00F9300E0102E04E1C9
:10009000202E00E0302E00E0402E0F9181D00F93F3
:1000A00000E0102E04E1202E00E0302E00E0402E73
:1000B0000F9189D09DD00F9304E1102E00E0202EE7
:1000C00000E0302E00E0402E0F916AD00F9304E143
:1000D000102E00E0202E00E0302E00E0402E0F9188
:1000E00072D0B8CFB89AB99ABB9ABA98C29AC09A45
:1000F00051D0C0980F9300E0102E00E0202E00E0B9
:10010000302E00E0402E0F9100E415E920D06CD095
:100110000F930AEA102E01E0202E00E0302E00E0BE
:10012000402E0F9108E417E812D05ED033D00F9321
:1001300000E0102E00E0202E00E0302E00E4402EE3
:100140000F9101E404D00023E1F712D008950F933A
:100150000FD00F910ED0042D0CD0032D0AD0022DFC
:1001600008D0012D06D0012F04D002D001D008956F
:100170000FEF1F9318E0001FC19808F4C19A000008
:10018000C39A0894B29B8894001FC3981A95A1F74C
:100190001F910895C19A1AE0EBDF1A95E9F70895C7
:1001A00008E5D5DF0EEFE5DF07D0E2DFE1DFE0DFD6
:1001B000DFDFB29BFDCF0895E0E0F2E00E2FD9DF44
:1001C0003197E1F7089501E5C2DFD2DF0E3FE9F78D
:1001D00004D0CEDFCDDFCCDF0895E0E0F2E0C8DF71
:1001E00003D03197E1F708955D9BFECF0CB90895D8
:0801F0005F9BFECF0CB10895E6
:00000001FF
