:020000020000FC
:10000000D6C024EB01C023E12F9328E02A95F1F715
:100010002F912A95C9F7089596988E9AF2DFF89451
:100020008E98969AF0DF889486990894789401E0E7
:1000300038F0E7DF02E088948699089408F400E03D
:10004000089518E0069510F026D001C02ED01A951C
:10005000C9F7089508F01FC028C018E005D007951B
:100060001A95E1F7089500C0F89496988E9A28E0C2
:100070002A95F1F78E98969A28E02A95F1F728E0CC
:100080002A95F1F728E02A95F1F788948699089443
:100090007894B9DF0895F89496988E9AB4DF969A7A
:1000A0008E9A8E98969A78940895F89496988E9A47
:1000B00028E02A95F1F7969A8E9A8E98969A7894D7
:1000C000A2DF0895A9DF0023689451F4E89403E3C4
:1000D000B8DF28E02F93C1DF2F9101932A95D1F744
:1000E000089528E0E89405911991011719F42A95CB
:1000F000D1F7689408950591003011F02CD0FBCF12
:1001000008950F93029501D00F910F700A3008F0F7
:10011000095F20C0899A889A8A9A8B9A8C9A8D9ABC
:1001200030D003E01AD003E018D003E016D008E284
:1001300014D008E212D008E010D001E00ED000E1A7
:100140000CD006E00AD002E008D008E206D00CE0AD
:1001500004D00895005D909A01C0909802D001D01B
:1001600010C0929893989498959804FD929A05FDE2
:10017000939A06FD949A07FD959A919A0295919803
:1001800008950F930AE519E11A95F1F70A95D9F741
:100190000F910895899A889A8A9A8B9A8C9A8D9A47
:1001A00002E0DBDF08E2D9DF0CE0D7DF08950FEDD6
:1001B0000DBFB0DFEF93FF93F0E0E0E683DFFF9148
:1001C000EF910EF42BD020D000ECC7DFEF93FF931C
:1001D000CF93DF93D0E0C0E6F2E0E0E582DFDF918D
:1001E000CF91FF91EF9146F0EF93FF93F2E0ECE2B5
:1001F00082DFFF91EF91DECFEF93FF93F2E0EEE32A
:100200007ADFFF91EF91D6CF02E0A7DFF0E0E0E6E2
:1002100048E0019176DF4A95E1F70895F0E0E0E6E5
:1002200018E000E001931A95E9F70895556E6B6E9A
:100230006F776E2049442D636F6465200000202095
:10024000202020204F4B2021202020202020000093
:0802500001F5770F0F00005DBE
:00000001FF
