:020000020000FC
:1000000005E50F930F930F930F930F910F910F919E
:100010000F9104EB0DBF0F931F930F911F9139D0D8
:100020000FED0DBF00E00EBF22C03AC00FE10F93ED
:1000300000E00F93089500000000000000000CE2B3
:100040000093DF0000E00093DE000DED0DBF08958A
:1000500000000000000000000FE50DBF0027009326
:10006000600001E400936100089502D004D007D03D
:1000700002E20F930895FF27EFED008308950DB777
:1000800003950DBF08950FED0DBFE9E4F0E009956C
:1000900003D0000000000895FF91EF91319709957A
:0200A000FFDF80
:00000001FF
