:020000020000FC
:0200000012C02C
:0600060063C05EC05FC094
:100026000FED0DBF0FEF02BB0FEF07BB00E008BBE4
:1000360008EC09BF0DE00BBD0CEA0ABD08D001D0E3
:10004600FECF10FF189511FF0CD012FDFECF00E079
:100056000EBD1127AA24BB24CC24DD240FEF08BF34
:100066001895F894F1E0E0E51CD08EF0F1E0E4E5B7
:1000760018D07EF0F1E0E4E714D06EF0F1E0E8E7A6
:1000860010D05EF0F1E0ECE70CD04EF01895B69A81
:100096001895B59A1895B49A1895B69A1895B59A6A
:1000A6001895E89405910D1551F405910C1539F440
:1000B60005910B1521F405910A1509F46894089524
:1000C600116018951B7F08952FB60F9300E00DBDA4
:1000D60000E00CBDA4B5B5B512FD06D002E00EBD1C
:1000E60014600F912FBE189517D030F41FD028F446
:1000F60009D008F4126008950894AA1CBB1CCC1CF5
:10010600DD1C0895FCE0E0E81BD010F0089408958B
:10011600FAE0E0EF15D00895F7E0ECE611D010F024
:1001260008940895F6E0E4EA0BD00895F5E0E4E1DA
:1001360007D010F008940895F4E0ECE401D0089597
:100146000A2F0E1B0B2F0F0B089500002C1000001A
:1001560018900000389000000A10000022100000DD
:1001660033100000131000000B1000002B100000CD
:0E0176001210000032100000051000003110C1
:00000001FF
