:020000020000FC
:10000000BEC024EB01C023E12F9328E02A95F1F72D
:100010002F912A95C9F7089596988E9AF2DFF89451
:100020008E98969AF0DF889486990894789401E0E7
:1000300038F0E7DF02E088948699089408F400E03D
:100040000023089518E0069510F026D001C02ED0A8
:100050001A95C9F7089508F01FC028C018E005D008
:1000600007951A95E1F7089500C0F89496988E9A2E
:1000700028E02A95F1F78E98969A28E02A95F1F7CC
:1000800028E02A95F1F728E02A95F1F788948699D7
:1000900008947894B8DF0895F89496988E9AB3DF10
:1000A000969A8E9A8E98969A78940895F89496983F
:1000B0008E9A28E02A95F1F7969A8E9A8E98969ABB
:1000C0007894A1DF08950591003011F02CD0FBCF7A
:1000D00008950F93029501D00F910F700A3008F028
:1000E000095F20C0899A889A8A9A8B9A8C9A8D9AED
:1000F00030D003E01AD003E018D003E016D008E2B5
:1001000014D008E212D008E010D001E00ED000E1D7
:100110000CD006E00AD002E008D008E206D00CE0DD
:1001200004D00895005D909A01C0909802D001D04B
:1001300010C0929893989498959804FD929A05FD12
:10014000939A06FD949A07FD959A919A0295919833
:1001500008950F930AE519E11A95F1F70A95D9F771
:100160000F910895899A889A8A9A8B9A8C9A8D9A77
:1001700002E0DBDF08E2D9DF0CE0D7DF08950FED06
:100180000DBFB0DF1CD048DF0CEC5CDF0EEB5ADF9C
:1001900002E0CBDF63DF9DDF61DF9BDF5FDF99DFA5
:1001A0005DDF97DF5BDF95DF59DF93DF57DF91DF9F
:1001B00055DF8FDF00ECB9DF51DF8BDFE3CF2CDFC2
:1001C00029F40CEC3FDF04E43DDF01D00895969A5A
:1001D0008E9AF3E0E8EE15DF88948699089410F47F
:0A01E0003197C9F78E98969A08959A
:00000001FF
