:020000020000FC
:1000000006C10591003011F02FD0FBCF08950F935A
:10001000029503D00F9101D008950F700A3008F0B7
:10002000095F21D00895899A889A8A9A8B9A8C9A26
:100030008D9A31D003E01AD003E018D003E016D037
:1000400008E214D008E212D008E010D001E00ED08F
:1000500000E10CD006E00AD002E008D008E206D0A9
:100060000CE004D00895005D909A01C0909803D0F0
:1000700002D011D00895929893989498959804FD81
:10008000929A05FD939A06FD949A07FD959A919A86
:100090000295919808950F930AE519E11A95F1F7E1
:1000A0000A95D9F70F910895899A889A8A9A8B9A16
:1000B0008C9A8D9A02E0DADF08E2D8DF0CE0D6DF16
:1000C0000895000000000000000000000000000093
:1000D000000000000000000008951F9318E0001FBA
:1000E00018F4B998C19A02C0C198B99A44D01A9527
:1000F000B1F7001FB998C19AE4DFB898C09AE1DF60
:10010000E894B1996894C098B89A1F9108951F9384
:10011000B998C19A18E0D5DFB898C09AD2DF889410
:10012000B1990894001FC098B89A1A95A1F71F9129
:100130000895C198B99A02C0B998C19A1CD008957F
:10014000B998C19AB898C09A6894B19B0895B09B29
:100150000895E894C198B99AB4DFC098B89A089500
:10016000C198B99AAEDFB898C09AB09BFECFA9DF0C
:10017000B998C19A0895A5DFB898C09AB09BFECFF0
:10018000A0DFC098B89A08953CD000E0A6DF3BD02D
:10019000BEDFD2DFE5DFE89407FF089532D000E04C
:1001A0009CDF9BDFDDDF689408952BD000E095DFB6
:1001B0002AD016E0ACDFBDDF01931A95D9F7A7DF8F
:1001C0000083BADFCDDF08951CD000E086DF17E0A2
:1001D000019183DF1A95E1F7C3DF0895085F0F935C
:1001E00010D00F917ADF0FD092DFA6DFB9DF08952C
:1001F0000F9307D0012F085F70DF0F916EDFB0DF24
:10020000089500ED01C001ED9BDF67DF08950FED5C
:100210000DBF0FEF02BB08BB06DFB6DF0EF43AD00E
:100220004BD0FF93EF93F0E0E0E6BFDFEF91FF915B
:10023000F0E0E0E602E01ADFEF93FF93F2E0E4EC97
:10024000E0DEFF91EF910281E2DE0AE30DDF018142
:10025000DEDE0AE309DF0081DADE00E205DF00E02E
:10026000BDDFD5DE00EC02DFEF93FF93F2E0EAECB6
:10027000C8DEFF91EF910481CADE0EE2F5DE058152
:10028000C6DE0EE2F1DE0681C2DE00E2EDDE0381B3
:10029000BEDEC7CFF0E0E0E602E2008305E50183C1
:1002A00005E1028303E0038302E2048305E00583A2
:1002B00003E1068389DF089500E090DF039510E0F5
:1002C00097DF089554696D653A00446174613A009E
:00000001FF
