:020000020000FC
:10000000C6C028CC8F5203000063287B6C8100009F
:10001000001824EB01C023E12F9328E02A95F1F783
:100020002F912A95C9F7089596988E9AF2DFF89441
:100030008E98969AF0DF889486990894789401E0D7
:1000400038F0E7DF02E088948699089408F400E02D
:100050000023089518E0069510F026D001C02ED098
:100060001A95C9F7089508F01FC028C018E005D0F8
:1000700007951A95E1F7089500C0F89496988E9A1E
:1000800028E02A95F1F78E98969A28E02A95F1F7BC
:1000900028E02A95F1F728E02A95F1F788948699C7
:1000A00008947894B8DF0895F89496988E9AB3DF00
:1000B000969A8E9A8E98969A78940895F89496982F
:1000C0008E9A28E02A95F1F7969A8E9A8E98969AAB
:1000D0007894A1DF08950591003011F02CD0FBCF6A
:1000E00008950F93029501D00F910F700A3008F018
:1000F000095F20C0899A889A8A9A8B9A8C9A8D9ADD
:1001000030D003E01AD003E018D003E016D008E2A4
:1001100014D008E212D008E010D001E00ED000E1C7
:100120000CD006E00AD002E008D008E206D00CE0CD
:1001300004D00895005D909A01C0909802D001D03B
:1001400010C0929893989498959804FD929A05FD02
:10015000939A06FD949A07FD959A919A0295919823
:1001600008950F930AE519E11A95F1F70A95D9F761
:100170000F910895899A889A8A9A8B9A8C9A8D9A67
:1001800002E0DBDF08E2D9DF0CE0D7DF08950FEDF6
:100190000DBFB0DF0FD048DF05E55CDF21D00EEBEF
:1001A00059DF64DFE02F62DFF02F36D002E0C5DFD9
:1001B0001FD0F0CF39DF29F40CEC4CDF04E44ADF28
:1001C00001D00895969A8E9AF4E0E0E322DF8894B5
:1001D0008699089410F43197C9F78E98969A0895E5
:1001E000F0E0E2E048E0059135DF4A95E1F7089557
:1001F000E7FF03C00DE29FDF07C0E4FF03C001E398
:100200009ADF02C000E297DF0F2F6BDF0EE293DF71
:100210000E2F0F708FDF0895F7FB1EF4E095F09519
:10022000319602D0E7F90895EE1FFF1FEE1FFF1F62
:10023000EE1FFF1FEE1FFF1FE29502D00AD00895A8
:10024000EF700E2FEE0FEE0FE00FE695E695E695B8
:1002500008950027F43610F0F456E061FA3018F0F3
:0C026000FA500395FBCF0295F02B089597
:00000001FF
