:020000020000FC
:020000001FC01F
:100040000FED0DBFB89AB99ABB9ABA98C09AC398E7
:100050000AEAC09811D0C09AC39AC0980AEA1CD084
:10006000C09AC3980AEAC09827D0C09AC39A0AEAED
:10007000C09832D0C09AEBCF18E0001F10F0C198A2
:1000800001C0C19A0000C39A0894B29B8894001FD3
:10009000C3981A9599F7089518E0001FC39A10F0B5
:1000A000C19801C0C19A0000C3980894B29B88947B
:1000B000001F1A9599F7089518E0001F10F0C198D5
:1000C00001C0C19A0000C3980894B29B8894001F95
:1000D000C39A1A9599F7089518E0001FC39810F075
:1000E000C19801C0C19A0000C39A0894B29B889439
:0800F000001F1A9599F708950D
:00000001FF
