:020000020000FC
:0200000012C02C
:060006006FC068C06BC072
:100026000FED0DBF0FEF02BB0FEF07BB00E008BBE4
:1000360008EC09BF03E10BBD08E80ABD08D001D0F2
:10004600FECF10FF189511FF0CD012FDFECF00E079
:100056000EBD1127AA24BB24CC24DD240FEF08BF34
:100066001895F894F1E0E8E926D0EEF0F1E0ECE935
:1000760022D0CEF0F1E0E0EA1ED0BEF0F1E0E4EAF4
:100086001AD09EF0F1E0E8EA16D08EF0F1E0ECEA44
:1000960012D06EF0F1E0E0EB0ED05EF0F1E0E4EBB2
:1000A6000AD03EF01895B69A1895B59A1895B49A4E
:1000B6001895B69A1895E89405910D1551F4059181
:1000C6000C1539F405910B1521F405910A1509F45F
:1000D60068940895116003E00EBD18951B7F08957E
:1000E6002FB60F9300E00DBD00E00CBDA4B5B5B56D
:1000F60012FD06D002E00EBD14600F912FBE1895BA
:100106001BD050F423D040F42BD038F433D028F44D
:1001160009D008F4126008950894AA1CBB1CCC1CD4
:10012600DD1C0895FCE0E4EE2FD010F0089408954D
:10013600FAE0ECE829D00895FEE0E4E725D010F0D7
:1001460008940895FCE0E4EE1FD00895FBE0E4E592
:100156001BD010F008940895F8E0ECEF15D0089540
:10016600F8E0E4E311D010F008940895F5E0ECED22
:100176000BD00895F8E0E4E307D010F00894089552
:10018600F5E0ECED01D008950A2F0E1B0B2F0F0B97
:10019600089500000065000000E5000000C80000AA
:1001A60001C80000007F0000003F000000E90000D9
:0201B6000069DE
:00000001FF
